:100000000C942A000C9447000C9447000C94470071
:100010000C9447000C9447000C9447000C948D08F6
:100020000C9447000C9447000C9447000C94470034
:100030000C9447000C9447000C9447000C94470024
:100040000C9447000C9447000C9447000C94470014
:100050000C94470011241FBECFE5D8E0DEBFCDBF12
:1000600010E0A0E6B0E0E4EFF7E202C005900D92E8
:10007000AA37B107D9F717E0AAE7B0E001C01D928F
:10008000A830B107E1F70E94DE060C94F8130C9437
:100090000000349B13C044B14093F70655B1537030
:1000A0005093F806352F20E050E0242B352B369561
:1000B000279536952795FC01208334980895AF92B3
:1000C000BF92CF92DF92EF92FF920F931F93CF9345
:1000D000DF938C0180E090E0DC01F8018083918364
:1000E000A283B383E62EF72EC0E0D0E0F801608152
:1000F000718182819381F7012191319141915191D7
:100100007F010E949911D72EB82EA92E862F9D2DE2
:10011000AB2DBA2DF80180839183A283B3832196FE
:10012000CA30D10519F7BC01CD0120E030E040E232
:1001300051E40E940112DC01CB01F801808391831C
:10014000A283B383DF91CF911F910F91FF90EF9026
:10015000DF90CF90BF90AF9008956F927F928F9273
:100160009F92AF92BF92CF92DF92EF92FF920F9346
:100170001F93CF93DF934B015C013901C42ED52E21
:10018000EE24FF2400E0C0E0D0E010E0F601619131
:100190006F0170E080E090E00E946B12A501940175
:1001A0000E94981120E030E048EC52E40E940112D5
:1001B0009B01AC010E941F13F62FE72F382F292F28
:1001C000402F5C2F6D2F712FCB01BA01422F0F2FC3
:1001D0001E2F232F342FA90198010E949911062F59
:1001E000C72FD82F192F0894E11CF11CFAE0EF1645
:1001F000F10461F6862F9C2FAD2FB12FBC01CD01EC
:1002000020E030E040E251E40E9401120E94861397
:10021000DC01CB01F30180839183A283B383DF915F
:10022000CF911F910F91FF90EF90DF90CF90BF90F3
:10023000AF909F908F907F906F9008958F929F9234
:10024000AF92BF92CF92DF92EF92FF920F931F93E4
:10025000CF93DF93FB0180809180A280B380C82E72
:10026000D92EEE24FF2400E0C0E0D0E010E0F6013B
:1002700061916F0170E080E090E00E946B12A50137
:1002800094010E94981120E030E048EC52E40E9472
:1002900001129B01AC010E941F13F62FE72F382F8C
:1002A000292F402F5C2F6D2F712FCB01BA01422FC8
:1002B0000F2F1E2F232F342FA90198010E9499116F
:1002C000062FC72FD82F192F0894E11CF11CFAE034
:1002D000EF16F10461F6862F9C2FAD2FB12FBC01D4
:1002E000CD0120E030E040E251E40E9401120E9482
:1002F0008613462F572F682F792FCB01BA01DF9134
:10030000CF911F910F91FF90EF90DF90CF90BF9012
:10031000AF909F908F900895882319F0813099F5C0
:100320002FC08FEF91EBACE081509040A040E1F7FF
:1003300000C000008FEF91EBACE081509040A040F6
:10034000E1F700C000008FEF91EBACE081509040EE
:10035000A040E1F700C000008FEF91EBACE08150CE
:100360009040A040E1F700C000008FEF91EBACE0BF
:1003700081509040A040E1F700C0000012BA0895FB
:1003800081E082BB089585E582BB0895AF92BF925C
:10039000CF92DF92EF92FF920F931F93CF93DF9351
:1003A0006C01E62EF42E8AE190E00E94EB038C01B2
:1003B000009709F462C080917A0090917B000097C9
:1003C00039F510937B0000937A00CDE7D0E0CE01A1
:1003D0000E943004CE0109960E943004CFE8D0E09C
:1003E000CE010E9430040F2EF8E9AF2EF0E0BF2EB0
:1003F000F02DC5010E94300481EA90E00E94300493
:10040000D093AB00C093AA00B092AD00A092AC0014
:10041000CE2DE110C1E0F801118E108EC68BF78A47
:10042000C192D1927F01CF010E943E04C8010C9677
:100430000E943E04F80111870087138B028B84E031
:1004400090E08C1B910995878487868990917C0028
:10045000981710F480937C0090E09C01220F331FCA
:10046000220F331F220F331F820F931F83589F4F7A
:10047000B7010E94420481E001C08FEFDF91CF916C
:100480001F910F91FF90EF90DF90CF90BF90AF90B2
:1004900008950F931F93CF93DF938B01C091AE000C
:1004A000D091AF00C80FD91F80917A0090917B0046
:1004B00002960E94A804E0917A00F0917B00D38319
:1004C000C2838091AE009091AF00C817D90750F455
:1004D000BF016E5F7F4F8091AC009091AD000E9494
:1004E0006B0409C0BF016E5F7F4F8091AA0090919D
:1004F000AB000E946B040115110549F060917A0070
:1005000070917B00645F7F4FC8010E946B04DF9194
:10051000CF911F910F910895CF92DF92EF92FF92AA
:100520000F931F93CF93DF938091A1008823B9F19C
:100530000F2EF6EAEF2EF0E0FF2EF02D0F2EF1EA4F
:10054000CF2EF0E0DF2EF02DF894D701ED91FC9145
:10055000C681D781CE010C960E94A80478948E01A2
:100560000E5F1F4FC8010E94A8048E8990917C00E5
:10057000981710F480937C0090E09C01220F331FA9
:10058000220F331F220F331F820F931F83589F4F59
:10059000B8010E944204F60180818823A9F60E94D6
:1005A000170E2091B0003091B100821B930B9093F5
:1005B000B3008093B20074C02091AE003091AF00C0
:1005C0002F5F3F4F3093AF002093AE000197909381
:1005D000B3008093B2002115310581F48091AA0007
:1005E0009091AB002091AC003091AD003093AB0006
:1005F0002093AA009093AD008093AC00E091AA00F4
:10060000F091AB008081882309F44AC00580F6810F
:10061000E02DC681D7812A813B818091AE009091E7
:10062000AF008217930778F43BC00580F681E02D78
:10063000C681D7812A813B818091AE009091AF0025
:100640008217930768F1F8948E010E5F1F4FC8015F
:100650000E94A8048C899D89009721F0CE010C96F8
:100660000E94A80478948E8990917C00981710F4C9
:1006700080937C0090E09C01220F331F220F331FD8
:10068000220F331F820F931F83589F4FB8010E9480
:100690004204E091AA00F091AB008081882329F602
:1006A0008091B2009091B300009709F085CF8091BE
:1006B000AE009091AF009093B1008093B000209174
:1006C0007C00822F90E0FC01EE0FFF1FEE0FFF1F5A
:1006D000EE0FFF1FE80FF91FE358FF4F3081332360
:1006E000D9F4222331F447C0222319F420937C004B
:1006F00042C02150822F90E0FC01EE0FFF1FEE0F51
:10070000FF1FEE0FFF1FE80FF91FE358FF4F308167
:10071000332351F320937C00FC01EE0FFF1FEE0FFB
:10072000FF1FEE0FFF1F8E0F9F1FFC01E358FF4FAF
:10073000A181B28112960D90BC91A02DB283A183AC
:10074000CF010396A817B90731F412968D919C91A9
:100750001397928381830180F281E02DA681B78176
:10076000B0937B00A0937A00ED91FC911197CD019D
:1007700057966C910995DF91CF911F910F91FF9042
:10078000EF90DF90CF9008950F931F93CF93DF9357
:10079000DC011596ED91FC91169706811781E80111
:1007A0002C96CE010E94A80481EA90E0BE010E942E
:1007B0004204E0917A00F0917B0081E0D8015696E6
:1007C0002C9156979689291708F480E0DF91CF91F4
:1007D0001F910F910895CF93DF93EC010E94110EAA
:1007E0008091B4009091B500009731F487EB90E0D0
:1007F0009093B5008093B4002091920630919306B7
:10080000CE01820F931F45E08B3D940770F42817AB
:10081000390770F4C091B400D091B500C20FD31F56
:10082000909393068093920605C0C0E0D0E002C08A
:10083000C0E0D0E00E94EF0E8C2F9D2FDF91CF9172
:1008400008950895109293061092920608952091AB
:100850009206309193068BED95E0821B930B0895E1
:10086000FC010396928381832FEF3FEF3483238330
:10087000968385839087878310820895FC01118673
:1008800010860895CF93DF93EC01FB0189819A8153
:10089000DC0112962D913C91139733832283298199
:1008A0003A813583248312962D913C911397D90177
:1008B00015967C936E931497DC0113967C936E933C
:1008C00012977A836983D187C08788818F5F8883F5
:1008D000DF91CF910895CF93DF93AC01EB01288195
:1008E00039818FEF2F3F380721F4FA01A781B085B6
:1008F00018C0DA011396FA0185819681FC01808186
:1009000091812817390768F012960D90BC91A02D9F
:100910001296ED91FC9113978081918128173907E8
:1009200098F71296ED91FC911397FB83EA83D58398
:10093000C483BD83AC831396DC93CE9312975987FF
:100940004887FA0180818F5F8083DF91CF9108957E
:10095000FC01A281B3818481958115969C938E932D
:100960001497A481B5818281938113969C938E9371
:100970001297A085B18511968D919C9112978E1733
:100980009F0731F48481958112969C938E931197E1
:10099000118610868C9181508C938C910895CF9301
:1009A000DF93CDB7DEB72C970FB6F894DEBF0FBE3E
:1009B000CDBF77248E010F5F1F4FAE014C5F5F4F9D
:1009C000602F712FCE0109960F2EFEEFEF2EF6E06D
:1009D000FF2EF02D27010894411C511C97012E5F1A
:1009E0003F4F3A872987F7013396FC87EB87CC2462
:1009F000DD24D801E62FF72F5F9BFECF2CB121938A
:100A0000E417F507C9F75F9BFECF3CB1FA015F9B86
:100A1000FECF2CB12193E817F907C9F729812535B5
:100A200041F72A81253529F72B81253511F73031FA
:100A300061F5772051F528852F3F39F5E62FF72FFF
:100A40005D9BFECF21912CB9E417F507C9F75D9B9B
:100A5000FECFF0E1FCB90F2EF7E08F2E9924F02D98
:100A60008C0E9D1EE3E0F0E05401832E9D01D50124
:100A70005D9BFECF7D907CB83196E530F105C1F7E6
:100A8000D901382D7724739459C03032F1F421E024
:100A90007216D9F428852F3FC1F496015D9BFECFD5
:100AA000ED91ECB92F5F3F4F23303105B9F75D9BD6
:100AB000FECF30E23CB95D9BFECF28852CB95D9B13
:100AC000FECF2091FB062CB994CF3133B9F5E1E08C
:100AD0007E16A1F528852F3F89F52F81F701208308
:100AE0002E81F20120832D81E985FA8520832C81D6
:100AF000EB85FC852083F70180809180A280B38004
:100B000080926F0090927000A0927100B09272007B
:100B100096015D9BFECFED91ECB92F5F3F4F2330E7
:100B20003105B9F75D9BFECFF1E3FCB95D9BFECFCC
:100B30001CB85D9BFECF28852CB95BCF323309F002
:100B400058CF21E0721609F054CF28852F3F09F0C5
:100B500050CF2F81F70120832E81F20120832D8138
:100B6000E985FA8520832C81EB85FC852083F701BC
:100B700080809180A280B38080926B0090926C0004
:100B8000A0926D00B0926E0096015D9BFECFED913C
:100B9000ECB92F5F3F4F23303105B9F75D9BFECF96
:100BA000F2E3FCB95D9BFECF1CB85D9BFECF2885B0
:100BB0002CB91FCFCF93DF93CDB7DEB7AC970FB66D
:100BC000F894DEBF0FBECDBFCC24DD2444245524D1
:100BD0000F2EF9E26F2E7724F02D6C0E7D1E0F2E56
:100BE000F0E08F2EF0E09F2EF0E0AF2EF0E0BF2E71
:100BF000F02DC19A20E42A95F1F7C1988FEC97E087
:100C00000197F1F700C00000920108C083B782602D
:100C100083BF82B78F3F11F42F5F3F4F89B3882383
:100C2000A9F742B713BE12BE922F8827821B930BDF
:100C3000840F911D9C01B901882777FD8095982F1D
:100C40000E946B1220E030E040EE50E40E941F133F
:100C500020E030E04DE953E40E940112162F072FE7
:100C6000F82EE92E862F902FAF2DBE2DBC01CD0181
:100C700020E030E048EC53E40E941B131816A4F463
:100C8000F601EE0FFF1FEE0FFF1F81E090E08C0FCB
:100C90009D1FE80FF91F80E090E0A8ECB3E480838B
:100CA0009183A283B38313C0C601880F991F880F55
:100CB000991FE1E0F0E0EC0FFD1FE80FF91F812F15
:100CC000902FAF2DBE2D80839183A283B383089490
:100CD000C11CD11C9AE0C916D1040CF45FC0C30139
:100CE000BE016F5F7F4F0E945F00C9A4DAA4EBA42E
:100CF000FCA460916F0070917000809171009091E0
:100D0000720020E030E048EC52E40E941F13A7017B
:100D100096010E94FD111816E4F060916B0070912D
:100D20006C0080916D0090916E0020E030E048EC06
:100D300052E40E941F139B01AC01C701B6010E943F
:100D4000FD11181634F015BA21E025BB2093FB06DF
:100D500005C015BA32E035BB1092FB068AE02816B2
:100D60003104BCF4F101EE0FFF1FEE0FFF1F21E075
:100D700030E02C0F3D1FE20FF31F81929192A19260
:100D8000B192E615F705C9F70F2EFAE02F2E33249E
:100D9000F02D89A69AA6ABA6BCA662018FE79EE3BA
:100DA0000197F1F700C0000024CF1BB888E18AB991
:100DB00086E880BD10BC87E689B90895AF92BF92DE
:100DC000CF92DF92EF92FF920F9382E08ABB8FEF78
:100DD00087BB84BB0E94D5068AED95E060E670E093
:100DE0004AE550E020E030E000E0EE24FF24CC248F
:100DF000DD24AA24BB240E94D50B8FEC94E066E688
:100E000070E04AE550E020E030E00E94D50B0E94FF
:100E1000E00D80E090E00F91FF90EF90DF90CF9099
:100E2000BF90AF90089521E1FC012083319732E219
:100E30003083FC013297A3E3A083FC0133976083E6
:100E4000FC0134977083FC0135971082FC013697C2
:100E500060E86083FC0137971082FC01389762E0FC
:100E60006083FC01399763E06083FC013A9764E09A
:100E70006083FC013B9765E06083FC013C9766E082
:100E80006083FC013D9767E06083FC013E9768E06A
:100E90006083FC013F9769E06083FC01709760E12B
:100EA0006083FC0171972083FC01729722E120830B
:100EB000FC01739723E12083FC01749724E12083D4
:100EC000FC01759725E12083FC01769726E12083BC
:100ED000FC01779727E12083FC01789728E12083A4
:100EE000FC01799729E12083FC017A9720E2208395
:100EF000FC017B9721E22083FC017C973083FC017D
:100F00007D9723E22083FC017E974083FC017F973D
:100F10005083FC01B09726E22083FC01B19727E2C1
:100F20002083FC01B29728E22083FC01B39729E2D9
:100F30002083FC01B49720E32083FC01B59721E3D3
:100F40002083869708951BBC89EF8ABD8BE08EBDF8
:100F500089B7806189BFA0919406B0919506CD9123
:100F6000CDBFDD91DEBFFF91EF91DF91CF91BF91BA
:100F7000AF919F918F917F916F915F914F913F9131
:100F80002F911F910F91FF90EF90DF90CF90BF9026
:100F9000AF909F908F907F906F905F904F903F9019
:100FA0002F901F900F900FBE0F90089581E008952D
:100FB00008950F920FB6F8940F921F9211242F925A
:100FC0003F924F925F926F927F928F929F92AF92D9
:100FD000BF92CF92DF92EF92FF920F931F932F93C6
:100FE0003F934F935F936F937F938F939F93AF93B1
:100FF000BF93CF93DF93EF93FF93A0919406B091AB
:1010000095060DB60D920EB60D920E942A10A09173
:101010009406B0919506CD91CDBFDD91DEBFFF91D5
:10102000EF91DF91CF91BF91AF919F918F917F9180
:101030006F915F914F913F912F911F910F91FF9071
:10104000EF90DF90CF90BF90AF909F908F907F9068
:101050006F905F904F903F902F901F900F900FBE1A
:101060000F9008950F920FB6F8940F921F921124CB
:101070002F923F924F925F926F927F928F929F92A8
:10108000AF92BF92CF92DF92EF92FF920F931F9396
:101090002F933F934F935F936F937F938F939F9380
:1010A000AF93BF93CF93DF93EF93FF93A0919406F9
:1010B000B09195060DB60D920EB60D920E94290EB6
:1010C0000E942A10A0919406B0919506CD91CDBFB3
:1010D000DD91DEBFFF91EF91DF91CF91BF91AF9195
:1010E0009F918F917F916F915F914F913F912F9140
:1010F0001F910F91FF90EF90DF90CF90BF90AF9036
:101100009F908F907F906F905F904F903F902F9027
:101110001F900F900FBE0F9008950E9432081895EF
:10112000CF93DF93DC01CD91DC911197209721F1D2
:101130005C964C915C9716962D913C911797240FD5
:10114000311D17963C932E9316971296ED91FC91B4
:1011500013972E173F0720F01796DC93CE93169720
:1011600016963C91169717962C91862F972F632FE2
:10117000722F50E00E94D913DF91CF910895CF9341
:10118000DF93EC012C8D2223A9F14423B9F48C8147
:101190009D81422F50E00E94D9132C8D8C819D811E
:1011A000820F911D9D838C832A813B818217930737
:1011B00008F1888199819D838C831CC08E819F81D9
:1011C000422F50E00E94D9134C8D50E0509541952C
:1011D0005F4F8E819F81840F951F9F838E8328810F
:1011E00039818217930730F48A819B81480F591FF8
:1011F0005F834E838A8D8F5F8A8FDF91CF910895B1
:101200000F931F93CF93DF93EC010FB6F8940F92D7
:101210008E8D1816C4F48989882329F414C089890D
:10122000882321F410C08E010F5E1F4FC8010E9459
:101230000311882311F00E9494118E8D81508E8F9E
:101240008E8D181664F38FEF8E8F0F900FBE0FB632
:10125000F8940F928D8D1816C4F48885882329F48C
:1012600014C08885882321F410C08E01085F1F4FA9
:10127000C8010E940311882311F00E9494118D8DE2
:1012800081508D8F8D8D181664F38FEF8D8F0F9099
:101290000FBEDF91CF911F910F910895CF93DF93F0
:1012A000EC010FB6F8940F92488159812B8D30E0F4
:1012B000EC8DF0E02E9FC0012F9F900D3E9F900D72
:1012C0001124840F951F9B838A831A8E5D834C8320
:1012D000C9010197E89F9001E99F300DF89F300DFB
:1012E0001124240F351F3F832E838FEF8D8F8E8F18
:1012F000662361F48885882389F0CE0108960E94D0
:101300000311813059F40E94D90708C0CE01089614
:101310000E943004CE0141960E9430040F900FBE0F
:1013200081E0DF91CF9108950F931F93CF93DF93C7
:10133000182F062F8823F9F08FE190E00E94EB032D
:10134000EC010097D9F0019FC001112401960E9481
:10135000EB0399838883009741F01B8F0C8FCE019C
:1013600061E00E944E09CE010BC0CE010E94210413
:1013700080E090E005C080E090E002C080E090E076
:10138000DF91CF911F910F9108958F929F92BF92FD
:10139000CF92DF92EF92FF920F931F93CF93DF9341
:1013A00000D000D00F92CDB7DEB78C014B015D832A
:1013B0004C83B22EFF24EE24E394CC24DD246894E5
:1013C000C3F8C80ED91E0FB6F8940F92F801928D8B
:1013D000838D9817A8F4C801B4014B2D0E94BF0853
:1013E000F8018189882341F0C80141960E940311C8
:1013F000813011F40E94D9070F900FBE81E052C0D6
:101400008C819D81009721F40F900FBE80E04AC02F
:10141000FF2029F4CE0101960E944B11FE2C0F9063
:101420000FBE0E94110E0FB6F8940F92F801858D31
:101430008F3F09F4158EF801868D8F3F09F4168EC3
:101440000F900FBECE010196BE016C5F7F4F0E94D0
:101450005611882309F50FB6F8940F92F801928D72
:101460000F900FBEF801838D981781F46C817D81F8
:10147000C6010E94D710C8010E9400090E94EF0E09
:10148000882309F0A0CF0E94D9079DCFC8010E94F0
:1014900000090E94EF0E97CFC8010E9400090E9428
:1014A000EF0E80E00F900F900F900F900F90DF9154
:1014B000CF911F910F91FF90EF90DF90CF90BF9051
:1014C0009F908F9008950F931F93CF93DF93EC011C
:1014D0008A019A8D8B8D9817E0F4CE01422F0E94DD
:1014E000BF088E8D8F3F81F489898823A1F0CE01BA
:1014F00041960E940311882381F00115110579F0AE
:1015000081E0F80180830CC08E8D8F5F8E8F81E02B
:1015100007C080E005C081E003C081E001C081E038
:10152000DF91CF911F910F9108958F929F92BF925B
:10153000CF92DF92EF92FF920F931F93CF93DF939F
:1015400000D000D00F92CDB7DEB78C014B015D8388
:101550004C83B22EFF24EE24E3940F2EF1E1CF2E24
:10156000DD24F02DC80ED91E0FB6F8940F92F801A5
:10157000828D882351F1E680F780C801B4010E9472
:101580009008BB2081F4F801828D8150828F808584
:101590008823B9F0C80108960E940311813089F4AC
:1015A0000E94D9070EC0F801F782E682818988235C
:1015B00041F0C80141960E940311882311F00E9456
:1015C000D9070F900FBE81E050C08C819D8100979C
:1015D00021F40F900FBE80E048C0FF2029F4CE0117
:1015E00001960E944B11FE2C0F900FBE0E94110E0F
:1015F0000FB6F8940F92F801858D8F3F09F4158E80
:10160000F801868D8F3F09F4168E0F900FBECE0124
:101610000196BE016C5F7F4F0E9456118823F9F43A
:101620000FB6F8940F92F801828D0F900FBE8823A9
:1016300081F46C817D81C6010E94D710C8010E948F
:1016400000090E94EF0E882309F08ECF0E94D9076F
:101650008BCFC8010E9400090E94EF0E85CFC80100
:101660000E9400090E94EF0E80E00F900F900F90F3
:101670000F900F90DF91CF911F910F91FF90EF90FE
:10168000DF90CF90BF909F908F9008950F931F93FE
:10169000CF93DF93EC018A018A8D8823F1F0CE018C
:1016A0000E9490088A8D81508A8F8D8D8F3F81F4A2
:1016B00088858823A1F0CE0108960E940311882313
:1016C00081F00115110579F081E0F80180830CC0EB
:1016D0008D8D8F5F8D8F81E007C080E005C081E038
:1016E00003C081E001C081E0DF91CF911F910F9194
:1016F00008950FB6F8940F92FC01828D0F900FBEE3
:101700000895FC01828D0895CF93DF93EC018881C9
:1017100099810E942104CE010E942104DF91CF9182
:101720000895FC01928D81E0911180E00895FC0103
:10173000228D81E0938D291380E00895CF93DF936C
:10174000EC01E0919406F091950693838283809159
:101750009C0690919D06C817D90768F48091A00651
:101760009091A10660919406709195066E5F7F4FEF
:101770000E946B0417C08091A2069091A30660910D
:101780009406709195066E5F7F4F0E946B04809166
:10179000780090917900C817D90720F4D093790088
:1017A000C0937800DF91CF9108954F925F926F922E
:1017B0007F928F929F92BF92CF92DF92EF92FF9291
:1017C0000F931F93CF93DF932C014B01EA01390153
:1017D000B02E87E390E00E94EB038C01009709F4A0
:1017E000E7C0C114D10409F0F8C0CE010E94EB0398
:1017F0006C01F801908F878B009729F4C8010E9433
:1018000021048FEFDAC0C60165EA70E0AE010E94E4
:10181000E2139E0121503040F8018789908D6C01C0
:10182000C20ED31EC8014996B4014EE150E00E9499
:10183000E913F80116AACB2DF3E0FB1508F4C3E079
:10184000F801C68B88249924689481F8800E911E33
:10185000C4010E943E04C8010C960E943E04F80197
:101860001187008784E090E08C1B9109958784871D
:10187000138B028BC601B201A3010E941307F8016A
:1018800091838083E114F10419F0F701118300833F
:101890000FB6F8940F9280919E068F5F80939E06FC
:1018A0008091940690919506009709F03FC010939F
:1018B00095060093940680919E06813009F045C0FC
:1018C000C0E0D0E0CE01880F991F880F991F880FC4
:1018D000991F8C0F9D1F8A55994F0E9430042196A5
:1018E000C430D10579F7CAECD6E0CE010E943004AD
:1018F0000F2EF3EDEF2EF6E0FF2EF02DC7010E9424
:1019000030048CED96E00E94300485EE96E00E9453
:1019100030048EEE96E00E943004D093A306C0936C
:10192000A206F092A106E092A0060FC080919A064E
:10193000882359F4E0919406F09195068689B816AB
:1019400020F01093950600939406F80186899091F3
:10195000A406981710F48093A4069091A5069F5FA3
:101960009093A50690919B06981710F480939B0680
:1019700090E09C01220F331F220F331F220F331FD1
:10198000820F931F8A55994FB4010E9442040F9011
:101990000FBE80919A06882369F0E0919406F09139
:1019A000950686898B1540F40E94D90781E005C011
:1019B0008FEF03C081E001C081E0DF91CF911F91E3
:1019C0000F91FF90EF90DF90CF90BF909F908F90FE
:1019D0007F906F905F904F900895FC01D08EC78AE2
:1019E00012CFEF92FF920F931F93CF93DF937C015F
:1019F0000FB6F8940F928091940690919506E81690
:101A0000F90621F0E114F10441F402C0EE24FF24B0
:101A1000C0919406D091950601C0E7018E010E5F3A
:101A20001F4FC8010E94A8048C899D89009721F04E
:101A3000CE010C960E94A80485EE96E0B8010E94A3
:101A4000420480919F068F5F80939F068091A50638
:101A50008F5F8093A5060F900FBE80919A06882312
:101A600029F0E114F10411F40E94D907DF91CF911C
:101A70001F910F91FF90EF900895FC01828593854F
:101A800026E08E3E920761F42489358986E02C3D5C
:101A9000380741F081E02115310529F080E00895F3
:101AA00080E0089580E008950F931F93CF93DF9314
:101AB000EC010097B9F18091940690919506C817B2
:101AC000D90781F10FB6F8940F92CE010E943D0D17
:101AD000813031F58E010E5F1F4FC8010E94A804AE
:101AE0008E8990919B06981710F480939B0690E046
:101AF0009C01220F331F220F331F220F331F820F2F
:101B0000931F8A55994FB8010E944204E0919406B0
:101B1000F09195069E898689981710F00E94D90742
:101B20000F900FBEDF91CF911F910F910895EF920B
:101B3000FF921F93CF93DF93EC010E943D0D813004
:101B4000B9F580919906882351F5E0919406F091BA
:101B5000950611E09E898689981708F410E0EE2416
:101B6000FF246894E1F8EC0EFD1EC7010E94A80452
:101B70008E8990919B06981710F480939B0690E0B5
:101B80009C01220F331F220F331F220F331F820F9E
:101B9000931F8A55994FB7010E9442040AC0BE01A3
:101BA000645F7F4F8CED96E00E94420410E001C01C
:101BB00010E0812FDF91CF911F91FF90EF9008955A
:101BC000AF92BF92CF92DF92EF92FF920F938FE787
:101BD0009FE063E770E04AE550E020E030E000E09D
:101BE000EE24FF24CC24DD24AA24BB240E94D50BA0
:101BF000813049F4F89480939A0610929D061092D1
:101C00009C060E94A3070F91FF90EF90DF90CF906A
:101C1000BF90AF900895F89410929A060E94D8074A
:101C20000895809199068F5F8093990608950FB665
:101C3000F8940F9280919C0690919D060F900FBE94
:101C4000089580919C0690919D06089580919E062E
:101C500008950F931F93CF93DF9380919906882364
:101C600009F0B3C080919C0690919D0601969093D7
:101C70009D0680939C0680919C0690919D060097FE
:101C800099F58091A2069091A3062091A00630912B
:101C9000A1063093A3062093A2069093A1068093F9
:101CA000A006809196068F5F80939606E091A2062B
:101CB000F091A3068081882339F48FEF9FEF9093F2
:101CC00079008093780010C0E091A206F091A306FD
:101CD0000580F681E02D0680F781E02D82819381D9
:101CE000909379008093780020919C0630919D0616
:101CF00080917800909179002817390708F46AC01C
:101D0000E091A206F091A3068081882399F0E091EA
:101D1000A206F091A3060580F681E02DC681D78149
:101D20008A819B8120919C0630919D062817390756
:101D3000F8F419C08FEF9FEF9093790080937800AB
:101D400049C0E091A206F091A3060580F681E02D3E
:101D5000C681D7818A819B8120919C0630919D0606
:101D60002817390728F4909379008093780032C0BF
:101D70008E010E5F1F4FC8010E94A8048C899D89A7
:101D8000009721F0CE010C960E94A8048E899091B4
:101D90009B06981710F480939B0690E09C01220FFD
:101DA000331F220F331F220F331F820F931F8A55B9
:101DB000994FB8010E944204E091A206F091A30657
:101DC0008081882309F0BDCFB5CF809198068F5FC1
:101DD00080939806DF91CF911F910F910895AF9254
:101DE000BF92CF92DF92EF92FF920F931F93CF9308
:101DF000DF930FB6F8940F928091990681508093EB
:101E0000990680919906882309F069C080919E0601
:101E1000882381F567C0D601ED91FC91C681D781F9
:101E2000CE010C960E94A8048E010E5F1F4FC801C0
:101E30000E94A8048E8990919B06981710F48093B5
:101E40009B0690E09C01220F331F220F331F220FAD
:101E5000331F820F931F8A55994FB8010E94420485
:101E6000E0919406F09195069E898689981788F0EE
:101E7000BA2C0FC0BB240F2EFCEDEF2EF6E0FF2E88
:101E8000F02D0F2EF1EECF2EF6E0DF2EF02DAA244E
:101E9000A394F7018081882309F0BDCF8091980633
:101EA000882381F080919806882399F00E94290E5A
:101EB0008091980681508093980680919806882397
:101EC000A9F707C0F1E0BF1621F080919706813095
:101ED00041F4109297060E94D90781E003C080E088
:101EE00001C080E00F900FBEDF91CF911F910F9145
:101EF000FF90EF90DF90CF90BF90AF90089505EEE8
:101F000016E00F2EFAEEEF2EF6E0FF2EF02D0F2E3C
:101F1000F6EACF2EF6E0DF2EF02D27C00E94110E3C
:101F2000D801CC910E94EF0ECC23F9F00FB6F894B3
:101F30000F92D701ED91FC91C681D781CE01029617
:101F40000E94A80480919E06815080939E068091F5
:101F50009F06815080939F060F900FBE8F89988DAA
:101F60000E942104CE010E94210480919F068823B3
:101F7000A9F6F60180818230C0F30E94D907F5CF1F
:101F8000CF93DF93EC010097B1F00E94110E809186
:101F90009C0690919D06C80FD91F80919406909140
:101FA000950602960E94A804CE010E949E0B0E94F4
:101FB000EF0E882311F40E94D907DF91CF91089585
:101FC0000F931F93CF93DF938C01EB010E94110EAF
:101FD000F80180819181C80FD91F20919C06309112
:101FE0009D062817390768F4C817D90750F580915E
:101FF0009C0690919D06D183C0838C179D07B0F4F9
:102000000BC0C817D907C8F080919C0690919D0617
:102010008C179D0790F015C08091940690919506BD
:1020200002960E94A804CE010E949E0B0E94EF0E11
:10203000882359F40E94D90708C0F801D183C083CE
:10204000EBCFF801D183C083F1CFDF91CF911F9106
:102050000F91089580919906882399F480919B06A9
:1020600090E0FC01EE0FFF1FEE0FFF1FEE0FFF1FB2
:102070008E0F9F1FFC01EA55F94F8081882329F0BC
:102080001BC081E080939706089580919B06815044
:1020900080939B0680919B0690E0FC01EE0FFF1F52
:1020A000EE0FFF1FEE0FFF1F8E0F9F1FFC01EA5563
:1020B000F94F8081882349F380919B0690E0FC01D1
:1020C000EE0FFF1FEE0FFF1FEE0FFF1FE80FF91FB0
:1020D000EA55F94FA181B28112960D90BC91A02DC5
:1020E000B283A183CF010396A817B90731F41296E2
:1020F0008D919C911397928381830180F281E02DD1
:102100008681978190939506809394060895EF9227
:10211000FF920F931F93CF93DF937C010FB6F89438
:102120000F928091940690919506E816F90621F099
:10213000E114F10441F402C0EE24FF24C09194069E
:10214000D091950601C0E7018E010E5F1F4FC801B7
:102150000E94A8048C899D89009721F0CE010C96DD
:102160000E94A8048EEE96E0B8010E9442040F90EF
:102170000FBEE114F104A1F480919A06882319F0AE
:102180000E94D9070DC09091EE0680919E06981787
:1021900029F4109295061092940602C00E942A100B
:1021A000DF91CF911F910F91FF90EF900895CF9302
:1021B000DF93EB016091940670919506645F7F4F09
:1021C0000E946B04809194069091950602960E945D
:1021D000A8048FEFCF3FD80759F46091940670910F
:1021E00095066E5F7F4F8EEE96E00E94420408C017
:1021F00080919C0690919D068C0F9D1F0E949E0BC6
:10220000DF91CF9108950F931F93CF93DF93DC015C
:102210001596ED91FC91169706811781E8012C9691
:10222000CE010E94A804809199068823E9F4E80170
:102230002296CE010E94A804F801868990919B06FF
:10224000981710F480939B0690E09C01220F331F97
:10225000220F331F220F331F820F931F8A55994F6E
:10226000BE010E94420405C08CED96E0BE010E94B2
:102270004204E0919406F091950681E0D8015696CB
:102280002C9156979689291708F480E0DF91CF9119
:102290001F910F910895FC01809196068083809193
:1022A0009C0690919D06928381830895FC01DB0139
:1022B0000FB6F8940F924D915C9111976FEF4F3FCD
:1022C000560751F1809196069081981749F0209118
:1022D0009C0630919D068181928128173907F0F480
:1022E00080919C0690919D0621813281821B930BE7
:1022F00084179507A8F480919C0690919D06B901DA
:10230000681B790BCB01840F951F8D939C93CF0194
:102310000E944B1180E005C080E003C081E001C055
:1023200081E00F900FBE089581E080939706089595
:102330005058BB27AA270ED044C135D130F03AD12E
:1023400020F031F49F3F11F41EF42AC10EF4E09501
:10235000E7FB20C1E92F46D180F3BA176207730764
:102360008407950718F071F49EF55EC10EF4E095B0
:102370000B2EBA2FA02D0B01B90190010C01CA013F
:10238000A0011124FF27591B99F0593F50F4503EEA
:1023900068F11A16F040A22F232F342F4427585FDC
:1023A000F3CF469537952795A795F0405395C9F7F4
:1023B0007EF41F16BA0B620B730B840BBAF09150AC
:1023C000A1F0FF0FBB1F661F771F881FC2F70EC04B
:1023D000BA0F621F731F841F48F48795779567951E
:1023E000B795F7959E3F08F0B3CF9395880F08F007
:1023F0009927EE0F979587950895A8D008F481E066
:1024000008950CD0DEC0D6D040F0CDD030F021F40D
:102410005F3F19F0BFC0511108C1C2C0E3D098F3AB
:102420009923C9F35523B1F3951B550BBB27AA2755
:1024300062177307840738F09F5F5F4F220F331FC7
:10244000441FAA1FA9F333D00E2E3AF0E0E830D093
:1024500091505040E695001CCAF729D0FE2F27D096
:10246000660F771F881FBB1F261737074807AB0764
:10247000B0E809F0BB0B802DBF01FF2793585F4FD9
:102480002AF09E3F510568F085C0CFC05F3FECF356
:10249000983EDCF3869577956795B795F7959F5F9E
:1024A000C9F7880F911D9695879597F90895E1E0F2
:1024B000660F771F881FBB1F621773078407BA0751
:1024C00020F0621B730B840BBA0BEE1F88F7E095AC
:1024D0000895E89409C097FB3EF490958095709517
:1024E00061957F4F8F4F9F4F9923A9F0F92F96E960
:1024F000BB279395F695879577956795B795F111D5
:10250000F8CFFAF4BB0F11F460FF1BC06F5F7F4F71
:102510008F4F9F4F16C0882311F096E911C0772383
:1025200021F09EE8872F762F05C0662371F096E88C
:10253000862F70E060E02AF09A95660F771F881F5B
:10254000DAF7880F9695879597F90895990F0008FF
:10255000550FAA0BE0E8FEEF16161706E807F90775
:10256000C0F012161306E407F50798F0621B730B10
:10257000840B950B39F40A2661F0232B242B252B91
:1025800021F408950A2609F4A140A6958FEF811D34
:10259000811D089597F99F6780E870E060E00895D5
:1025A0009FEF80EC089500240A941616170618066B
:1025B0000906089500240A94121613061406050647
:1025C0000895092E0394000C11F4882352F0BB0FD8
:1025D00040F4BF2B11F460FF04C06F5F7F4F8F4F3B
:1025E0009F4F089557FD9058440F551F59F05F3F76
:1025F00071F04795880F97FB991F61F09F3F79F025
:1026000087950895121613061406551FF2CF4695A6
:10261000F1DF08C0161617061806991FF1CF869528
:102620007105610508940895E894BB27662777270C
:10263000CB0197F908958ADF08F48FEF08950BD046
:10264000C0CFB1DF28F0B6DF18F0952309F0A2CF94
:10265000A7CF1124EACFC6DFA0F3959FD1F3950F42
:1026600050E0551F629FF001729FBB27F00DB11D16
:10267000639FAA27F00DB11DAA1F649F6627B00DA6
:10268000A11D661F829F2227B00DA11D621F739F8F
:10269000B00DA11D621F839FA00D611D221F749F9D
:1026A0003327A00D611D231F849F600D211D822FE4
:1026B000762F6A2F11249F5750408AF0E1F088232B
:1026C0004AF0EE0FFF1FBB1F661F771F881F915038
:1026D0005040A9F79E3F510570F05CCFA6CF5F3FF9
:1026E000ECF3983EDCF3869577956795B795F7956B
:1026F000E7959F5FC1F7FE2B880F911D96958795F3
:1027000097F9089511F40EF44BCF3EC073DFD0F368
:102710009923D9F3CEF39F57550B87FF43D000245D
:10272000A0E640EA900180585695979528F4805C81
:10273000660F771F881F20F026173707480730F4E9
:10274000621B730B840B202931294A2BA695179401
:102750000794202531254A2758F7660F771F881FD1
:1027600020F026173707480730F4620B730B840BF1
:10277000200D311D411DA09581F7B901842F91587D
:10278000880F9695879508959F3F31F0915020F4DA
:10279000879577956795B795880F911D969587953D
:1027A00097F9089591505040660F771F881FD2F710
:1027B0000895FB01DC0102C001900D924150504090
:1027C000D8F70895DC0101C06D9341505040E0F707
:1027D0000895FB01DC014150504048F001900D92FA
:1027E0000020C9F701C01D9241505040E0F7089504
:0427F000F894FFCF8B
:1027F4006D6F746F720064617461005C8F72404A23
:0A28040098993E49444C4500FFFF3F
:00000001FF
